:020000040800F2
:10000000482E0020350200080F2600087D20000839
:100010000D260008650900083F35000800000000B3
:100020000000000000000000000000009D0100082A
:10003000BD0B000800000000E10100084D3300087E
:100040004F0200084F0200084F0200084F0200084C
:100050004F0200084F0200084F0200084F0200083C
:100060004F0200084F0200084F0200084F0200082C
:100070004F0200084F0200084F0200084F0200081C
:100080004F0200084F0200084F0200084F0200080C
:100090004F0200084F0200084F0200084F020008FC
:1000A0004F0200084F0200084F0200084F020008EC
:1000B0004F0200084F0200084F0200084F020008DC
:1000C0004F0200084F0200084F0200084F020008CC
:1000D0004F0200084F0200084F0200084F020008BC
:1000E0004F0200084F0200084F02000800F002F81B
:1000F00000F045F80AA090E8000C82448344AAF17D
:100100000107DA4501D100F03AF8AFF2090EBAE87A
:100110000F0013F0010F18BFFB1A43F0010318473B
:100120007C5A00009C5A0000103A24BF78C878C15D
:10013000FAD8520724BF30C830C144BF04680C60ED
:10014000704700000023002400250026103A28BF35
:1001500078C1FBD8520728BF30C148BF0B60704739
:10016000642900F0F780752900F0F480732900F00D
:100170001683002070471FB51FBD10B510BD00F0DD
:1001800012FB1146FFF7F7FF03F0EAF900F030FB2E
:1001900003B4FFF7F2FF03BC00F038FB224B1968F1
:1001A0000868B0E8F00F80F30988BFF36F8F4FF055
:1001B000000080F311884EF00D0E70470000000023
:1001C00006480068006880F3088862B661B6BFF32D
:1001D0004F8FBFF36F8F00DF00BF00BF08ED00E05F
:1001E000EFF30980BFF36F8F0F4B1A6820E9F00F10
:1001F000106008B54FF0500080F31188BFF34F8FA7
:10020000BFF36F8F04F012F84FF0000080F31188F5
:10021000BDE8084019680868B0E8F00F80F3098865
:10022000BFF36F8F704700BF58000020EFF30580C9
:10023000704700000948804709480047FEE7FEE78D
:10024000FEE7FEE7FEE7FEE7FEE7FEE7FEE7FEE786
:1002500004480549054A064B70470000C3330008AF
:10026000ED00000848280020482E0020482A0020E1
:10027000482A0020B2F120030AD5C2F1200320FA57
:1002800002F001FA03F321FA02F140EA0300704799
:1002900021FA03F04FF00001704700000FB41CB5C5
:1002A000084B06AA7B4469460090059800F045FA81
:1002B00004460020694600F053FA20461CBC5DF855
:1002C00014FB0000B90400000FB47CB50C0009AAAF
:1002D000009001D02044401E084B7B4469460190A9
:1002E000089800F02AFA05461CB10020694600F083
:1002F00037FA28467CBC5DF814FB00008D04000032
:1003000070B50C460546012A05D02878800600D530
:10031000EA69002302E0012305E05B1C934202D25C
:10032000E05C0028F9D1A869E618C01AA861286A1B
:10033000184428622846AFF3008004E0D5E9012183
:1003400014F8010B9047B442F8D32846AFF300806D
:1003500070BD00002DE9F0410646002410687529A3
:10036000314616A510D0AFF30080002802DA4042D3
:1003700013A507E031688A0701D512A502E04907F5
:1003800004D511A5012401E0AFF3008000210A2269
:1003900006F1240709E0B0FBF2FCB0FBF2F302FB2C
:1003A0001C00303078541846491C0028F3D12346ED
:1003B0002A463046BDE8F04100F060B90000000078
:1003C0002D0000002B000000200000002DE9F0416E
:1003D0000F460546002028622846E968884770B322
:1003E000252805D0D5E901219047286A401CF2E76D
:1003F000E9682846002688476C2804460AD0682CFD
:1004000008D04C2C35D06A2C31D0742C31D07A2CB9
:100410002FD016E0E968064628468847B0420446D1
:1004200008D16C2E23D04FF480662846E9688847AF
:10043000044606E06C2E03D04FF4807601E01EE007
:100440004026E4B1A4F14100192802D8203446F432
:1004500000663A46214628462E60FFF781FE60B1CD
:10046000012808D0FF1D27F007070837B4E78026CA
:10047000DBE70026D9E73F1DAEE72046B2E7286A52
:10048000BDE8F08130B505460B462A4613F8014B0E
:1004900012F8010B08B1A042F8D01CB1002802D01C
:1004A0006D1CF1E7284630BD10B5431C02E010F882
:1004B000011B71B18107FAD14FF0013202C88C1AC9
:1004C0008C4314EAC211F9D0C01A0A0603D0C01E28
:1004D00010BDC01A10BD0A0401D0801E10BD090253
:1004E000FCD0401E10BD032A40F2308010F0030CF7
:1004F00000F0158011F8013BBCF1020F624498BF77
:1005000011F801CB00F8013B38BF11F8013BA2F113
:10051000040298BF00F801CB38BF00F8013B11F08E
:10052000030300F02580083AC0F0088051F8043B2E
:10053000083A51F804CBA0E80810F5E7121D5CBF9B
:1005400051F8043B40F8043BAFF30080D20724BFCE
:1005500011F8013B11F801CB48BF11F8012B24BF62
:1005600000F8013B00F801CB48BF00F8012B7047B1
:1005700010B5203AC0F00B80B1E81850203AA0E83E
:100580001850B1E81850A0E81850BFF4F5AF5FEA72
:10059000027C24BFB1E81850A0E8185044BF18C925
:1005A00018C0BDE810405FEA827C24BF51F8043BCC
:1005B00040F8043B08BF7047D20728BF31F8023B20
:1005C00048BF11F8012B28BF20F8023B48BF00F8B4
:1005D000012B704702F0FF0343EA032242EA024282
:1005E00000F002B84FF000020429C0F0128010F0B1
:1005F000030C00F01B80CCF1040CBCF1020F18BFFF
:1006000000F8012BA8BF20F8022BA1EB0C0100F091
:100610000DB85FEAC17C24BF00F8012B00F8012B64
:1006200048BF00F8012B70474FF0000200B5134699
:1006300094469646203922BFA0E80C50A0E80C5002
:10064000B1F12001BFF4F7AF090728BFA0E80C50B3
:1006500048BF0CC05DF804EB890028BF40F8042BAC
:1006600008BF704748BF20F8022B11F0804F18BF19
:1006700000F8012B70477047704770472DE9F0472D
:100680000D4699469246044600F124080168880602
:1006900004D5E06921F01001216000E00120A842AA
:1006A00001DD471B00E00027A1697A1902EB090070
:1006B000081AA0612078C00602D42046AFF300805B
:1006C000002608E0D4E901211AF806009047206AC4
:1006D000401C761C20624E45F4DB2078C0060AD50B
:1006E0002046AFF3008006E0D4E901213020904796
:1006F000206A401C2062381EA7F10107F4DC07E0E5
:10070000D4E9012118F805009047206A401C2062B6
:10071000281EA5F10105F3DC2046AFF30080207808
:10072000000602D50220BDE8F0870120FBE70000AB
:1007300001694A1C02610878704700B58FB0CDE9A5
:1007400001310021059105497944CDE90310114695
:100750006846FFF73BFE0FB000BD0000E5FFFFFF5E
:100760000A6802F8010B0A607047D1E900239A4237
:1007700002D2531C0B601070704710B5436913B15F
:10078000AFF3008001E0FFF7BBFD012010BD127840
:1007900000F124010A7000224A700122EDE711687D
:1007A0004FF0FF32E9E7754600F02CF8AE46050041
:1007B0006946534620F00700854618B020B5FFF77C
:1007C00047FDBDE820404FF000064FF000074FF016
:1007D00000084FF0000B21F00701AC46ACE8C0095F
:1007E000ACE8C009ACE8C009ACE8C0098D46704768
:1007F00010B50446AFF300802046BDE81040FFF777
:10080000C7BC000000487047E827002001491820B5
:10081000ABBEFEE72600020070470022114600280A
:1008200005D0435C491C1A441829FAD390B270478A
:1008300070B505001BD00E4CE06988B1C82104F0EA
:10084000E7F8012813D11C220A492846FFF790FE39
:10085000E069BDE8704000231A46194603F06EBFF8
:100860002846BDE870401C220249FFF781BE70BDDA
:1008700004000020C000002010B588B0040008D09B
:100880001C220D496846FFF773FE0C490098884208
:1008900002D0012008B010BD6846FFF7BEFF0699E0
:1008A000884201D00220F5E71C2269462046FFF766
:1008B0005FFE0020EEE7000000FC00082204262076
:1008C00070B58CB000251A4E2C460B95D0B1014660
:1008D0001C226846FFF74CFE164800906846FFF75A
:1008E0009CFF069000F0FAFB01200795CDE9096016
:1008F0000BA907A800F054FB30B100F0A5FB0220C3
:100900000CB070BD0120FBE76D4631192A5B002356
:10091000012000F0A3FB18B100F096FB0320EFE7E5
:10092000A41C1C2CF1D300F08FFB0020E8E7000092
:1009300000FC00082204262010B504000FD008484F
:1009400020604FF4FA6060601E20A0602820E06004
:100950000120206160612046FFF75FFFA06110BDAC
:1009600022042620FEE7000030B585B0002002906A
:100970000D48816941F00801816180694FF480541C
:1009800000F0080004900120CDE900400220074D4E
:1009900003906946284600F0B5FB0122214628460F
:1009A00000F0ADFC05B030BD00100240000C01406D
:1009B0002DE9F04706004FF000050BD00024DFF8CA
:1009C00054904FF4805801277821002000F086F8D9
:1009D000B8B902E00120BDE8F087282000F0A6F8B1
:1009E0004146484600F07EFC01280CD1C4F10700C6
:1009F00007FA00F0C0B205437821012000F06EF83C
:100A000008B10320E7E7641CE4B2082CDCD335709E
:100A10000020E0E7000C014070B5040048D0002140
:100A2000012000F04BF8244E4FF480550022294657
:100A3000304600F064FC142000F06AF801222946D8
:100A4000304600F05CFC1E2000F070F80121002010
:100A500000F034F87821012000F040F840BB782104
:100A6000002000F03BF818BB7821012000F036F898
:100A7000F0B92046FFF79CFFD0B9601CFFF798FF44
:100A8000B0B9A01CFFF794FF90B9E01CFFF790FFEE
:100A900070B9201DFFF78CFF50B920786178E2789B
:100AA0000844A178114408442179C0B2814201D0A0
:100AB000012070BD002070BD000C01401FB54FF437
:100AC00080520092CDE9010102200390694602485C
:100AD00000F018FB1FBD0000000C01402DE9F041A3
:100AE0000C4605464FF48056084F04E064B10120DF
:100AF000641E00F01BF83146384600F0F3FBA842B4
:100B0000F4D00020BDE8F0810320FBE7000C014099
:100B100030B5044600234FF47A7503E0284600F010
:100B200005F85B1CA342F9D330BD00000C490A78DC
:100B30000C4909684AB10C4AB1FBF2F141430B4838
:100B40004068001A8842FDD37047094AB1FBF2F1B0
:100B5000491C414300E000BF491EFCD27047000021
:100B6000550000205000002040420F00001000E01F
:100B700000127A000E4808B5016841F080710160EA
:100B80000C49002048600A6842F001020A604FF4F4
:100B90007A72009000BF0099491C00919142F9D3EC
:100BA000804201D0012000E000200349087008BD08
:100BB000FCED00E0001000E0550000207047000050
:100BC00010B54FF47A7204A104A000F043F8002895
:100BD00000D0022010BD00004F4B000041540D0A10
:100BE0000000000000B5A1B0B8B1B1B1034600915A
:100BF0000BA2802101A8FFF767FB43F698220EA104
:100C000001A800F027F8002808D04FF4FA620DA1DF
:100C10000DA000F01FF8002800D0012021B000BD79
:100C200041542B43574A41503D222573222C222503
:100C300073220D0A000000005749464920474F54CF
:100C4000204950004F4B000041542B43574A41501C
:100C50003F0D0A002DE9F8431746894605004FF07D
:100C6000000434D0B9F1000F31D04FF4807119482D
:100C7000FFF7B8FC2846FFF717FC82B24FF47A73EF
:100C80002946154801F0AAF900F03EFB0546A046AA
:100C9000104E17E00A23012269460F4801F046F979
:100CA00080B9FF2C06D29DF800003055641CA4B218
:100CB00006F8048049460748FFF7E4FB10B100201E
:100CC000BDE8F88300F020FB401BB842E2D30120CE
:100CD000F6E70000F81900209019002000B591B047
:100CE000034600910BA2402101A8FFF7EDFA42F262
:100CF00010720FA101A8FFF7ADFF002805D00EA1CB
:100D00001248FFF7BFFB10B1002011B000BD012059
:100D1000FBE7000041542B43495053544152543D8A
:100D200022544350222C222573222C25750D0A00B3
:100D3000434F4E4E45435400414C52454144592087
:100D4000434F4E4E4543544544000000F8190020DF
:100D50007FB506460D460B460EA210216846FFF7EA
:100D6000B3FA41F2883422460EA16846FFF772FFBB
:100D700010B1012004B070BD4FF47A732A46314699
:100D8000094801F02BF9224608A10AA0FFF762FFEB
:100D9000F0E7000041542B43495053454E443D2554
:100DA000750D0A003E0000009019002053454E4486
:100DB000204F4B000000000008B572B600250A4E17
:100DC000DFF828800A4C77140221304600F08FFAB1
:100DD0003946404600F08BFA009500BF0098401C51
:100DE0000090A042F9D3EFE7000801400010014055
:100DF00090D0030006490020C8610648016941F00F
:100E000004010161016941F0400101617047000086
:100E1000D819002000200240064A0021D16106496D
:100E20000A6942F002020A614861086940F0400024
:100E300008617047D819002000200240044B0022AE
:100E4000DA61044A136943F00103136101807047BA
:100E5000D81900200020024014480022C168CB06A7
:100E6000134904D5CA6942F00202CA611022C3685C
:100E70005B0705D5CB6943F00103CB6142F0040267
:100E8000C369DB0707D0CB6943F00403CB61C169B9
:100E900021F00101C161A2F58071013901D0C26068
:100EA0007047C16921F00101C16170470020024013
:100EB000D819002070B5054600F026FA0646114CF8
:100EC00009E0681C07D025B100F01EFA801BA8427B
:100ED00001D9032070BDE068C007F2D1E068800648
:100EE00001D52020E060E068C00605D4E069C007B5
:100EF00002D1E068400703D5FFF7AEFF012070BDC7
:100F0000002070BD00200240184808B5816941F0FA
:100F100004018161816941F0100181611448016817
:100F20004FF6F07291430160016842F220221143B2
:100F300001601048416821F470014160416841F44A
:100F4000001141600A4900230B4A0C310C6884F0FF
:100F500002040C60C46884F40054C460009300BFB1
:100F6000009C641C00949442F9D3EFE70010024007
:100F7000000801400010014090D0030070B5044605
:100F800000F0C2F90546601C02D004480078044411
:100F900000F0BAF9401BA042FAD370BD4400002013
:100FA0002DE9F047054626480F460126017E012916
:100FB0000FD00121814601762868DFF888804CF245
:100FC0005034022808D0A2462046FFF773FFA8B18C
:100FD00031E00220BDE8F0872046FFF76BFF08BB39
:100FE0000120FFF707FF2046FFF764FFD8F8101035
:100FF000064621F00401C8F810101CE04FF0FF3045
:101000003860AC6811E02046FFF706FF5046FFF756
:1010100051FFD8F81010060021F00201C8F8101096
:1010200001D03C6007E004F58064D5E9020100EBE3
:101030008120A042E7D8002189F818103046C9E77E
:10104000D8190020002002400348016941F08001C6
:101050000161002070470000002002402DE9F05F90
:1010600007461C4888460024017E15461E46012975
:1010700009D00121814601764CF2503A5046FFF7E3
:1010800019FF18B122E00220BDE8F09F012F02D025
:10109000022F00D00427D346DFF83CA022012846C7
:1010A0003146FFF7E7F881B208EB4400FFF7C6FED0
:1010B0005846FFF7FFFEDAF8102022F00102CAF8C6
:1010C000102018B9641CE4B2BC42E7D3002289F8AE
:1010D0001820D9E7D8190020002002400649002036
:1010E0000A69120607D5054A4A60054A4A60096935
:1010F000090600D501207047002002402301674502
:10110000AB89EFCD2DE9F84FDFF8B8910024A9F1B4
:10111000040B23460F2709F1040AABF1040EC9E0C2
:101120000125A5402A40AA427DD1674ED1F804C0CE
:10113000ACEB0608B44532D014DCBCF1030F3AD056
:1011400009DCBCF1000F2AD0BCF1010F1CD0BCF1AE
:10115000020F31D11DE0BCF1110F17D0BCF1120FFD
:101160002AD119E0B8F5881F19D006DCB8F5803F00
:1011700015D0B8F5801F1FD111E0B8F5001F0ED0B3
:10118000B8F5041F18D10AE0CB6815E0CB681B1D29
:1011900012E0CB6808330FE0CB680C330CE08B68AF
:1011A0002BB1012B4FF0080303D0456104E0042369
:1011B00002E0056100E00023FF2A01D8064601E0B5
:1011C00000F104064FEA840501D9A5F12005D6F8FF
:1011D000008007FA05FC28EA0C0803FA05F548EA3E
:1011E0000508C6F800804D68ED0062D5374DAE6940
:1011F00046F00106AE61AD6924F0030605F0010575
:101200000095334D06EB050CDCF80850A607360FA9
:1012100007FA06F825EA0805DFF8B880404503D14B
:101220004FF0000817E044E0DFF8AC80404502D101
:101230004FF001080FE0DFF8A480404502D14FF0E5
:10124000020808E0DFF89880404502D14FF003081B
:1012500001E04FF0040808FA06F848EA0508CCF85F
:1012600008804D68D9F80060ED024D4601D516435F
:1012700000E096432E604D68DAF80060AD025546F6
:1012800001D5164300E096432E604D68DBF8006000
:10129000AD035D4601D5164300E096432E604D68D0
:1012A000DEF80060ED03754601D5164300E0964375
:1012B0002E60641C0D682A46E5407FF431AFBDE81E
:1012C000F88F0000080401400000111000100240D7
:1012D0000000014000080140000C014000100140E6
:1012E000001401408068084000D001207047C268A7
:1012F00021EA02030A4043EA0241016170470AB150
:10130000016170470904FBE70148806870470000ED
:101310004400002070B5040025D094F83D0000255D
:1013200020B984F83C50204600F004FA242084F8C8
:101330003D002068016821F001010160206801681A
:1013400041F4004101602068016821F4004101601E
:1013500000F07AFB4D4A6168914201D84C4900E0A7
:101360004C49884201D2012070BD4B492368B0FB33
:10137000F1F15E6826F03F060E435E6063689342BB
:1013800006D94FF4967359434FF47A73B1FBF3F1D6
:101390002368491C1E6A26F03F06314319626168C2
:1013A000914210D84900401EB0FBF1F2521CC2F32A
:1013B0000B02042A01D2042022E0B0FBF1F0401C11
:1013C000C0F30B001CE0A268F2B301EBC10303EB16
:1013D0000116431EB3FBF6F35B1C43F480431B056D
:1013E00049D092B301EBC10202EB0111401EB0FBE8
:1013F000F1F0401CC0F30B0040F4804040F400408A
:101400002168CA694CF6FF739A431043C861D4E956
:10141000071001432068026822F0C00211430160F6
:10142000D4E9030101432068826848F2FF339A43FC
:1014300011438160D4E9050108432168CA6822F09C
:10144000FF021043C86001E00EE016E0206801686A
:1014500041F0010101602564202084F83D002563EE
:1014600084F83E50002070BD01EB4106431EB3FBE3
:10147000F6F35B1CB3E70120C2E701EB4101401E1C
:10148000B0FBF1F0401CC0F30B00B7E7A0860100F1
:1014900080841E0000093D0040420F002DE9FF4FEF
:1014A00081B089460446FFF72FFF054694F83D00BA
:1014B0004FF0000820287DD11923012250492046F1
:1014C000009500F06DFE002874D194F83C000128CE
:1014D00070D0012084F83C0020680168C90703D15E
:1014E000016841F0010101602068016821F4006198
:1014F0000160242084F83D00002626644148E06213
:101500004FF0011B20272068016841F480710160C1
:101510000095002259462046049B00F041FE50B140
:1015200020680068C00502D54FF4007020640320D5
:1015300005B0BDE8F08F216809F0FE000861FFF7F3
:10154000E3FE2168054648694969C0F34000C1F3DC
:1015500080214FF0A00A0FE0FFF7D6FE411B049850
:10156000814200D808B984F83DA0216848694969DA
:10157000C0F34000C1F3802194F83D20A02A02D09E
:1015800008B90029E8D084F83D7020684169C94352
:10159000890716D4016841F400710160206841692F
:1015A00080691923012216492046009500F0F8FDB4
:1015B000B8B900E021E084F83D7084F83C60002078
:1015C000B6E7016841F40071016021686FF4806042
:1015D0004861192301220A492046009500F0E0FDE8
:1015E00008B10120A4E7039808F1010880458AD3D7
:1015F00084F83D7084F83C60F3E7022098E700002F
:10160000020010000000FFFF2DE9F84F1F46904632
:101610008A460446DDF82890FFF776FE054694F8E2
:101620003D0020287FD11923012240492046009502
:1016300000F0B6FD002876D194F83C00012872D065
:10164000012084F83C0020680168C90703D10168C3
:1016500041F0010101602068016821F4006101602E
:10166000212084F83D00102084F83E0000262664E6
:10167000C4F824806785608D20852D48E0622B4664
:101680004A465146204600F011FD90B92068416954
:101690008069009036E02A464946204600F026FE42
:1016A00050B1206C042804D12068016841F4007115
:1016B00001600120BDE8F88F606A21680078086148
:1016C000606A401C6062618D491E6185218D491EE2
:1016D00089B2218522685369DB435B070BD451B182
:1016E00000781061606A401C6062608D401E6085F9
:1016F000208D401E20852A464946204600F024FDC4
:101700000028CED1208D0028C5D154F83D0B0168AA
:1017100041F400710160202004F81E09E677667725
:101720000020C7E7FFE70220C4E700000200100026
:101730000000FFFF10B586B00021009101910291D9
:10174000039100680F4988421AD10F4CA06940F0FC
:101750000800A061A069694600F008000490C0205C
:10176000009012200190032003900848FFF7CAFC64
:10177000E06940F40010E061E06900F400100490BA
:1017800006B010BD0054004000100240000C0140A3
:1017900070B5040013D021684CF6CC400860216875
:1017A00045F255500860D4E9000141602168A06805
:1017B0008860FFF7A9FD054641F23C360DE00120A7
:1017C00070BD00BFFFF7A0FD401BB04205D92068E7
:1017D000C068800701D0032070BD2068C068800702
:1017E000F0D121684AF6AA200860002070BD006888
:1017F0004AF6AA2101600020704700000248816873
:10180000027811448160704744000020074810B5F9
:10181000016841F010010160032000F06DF80F2015
:1018200000F006F800F024F8002010BD002002406F
:1018300070B50D4D04464FF47A712878B1FBF0F085
:101840000A490968B1FBF0F000F0D4FA48B9102C4D
:1018500007D200222146501E00F02EF800206C60B6
:1018600070BD012070BD0000440000205000002029
:101870000F4808B5816941F001018161816901F07A
:1018800001010091C16941F08051C161C06900222C
:1018900000F0805000900F21901E00F00DF80548D8
:1018A000416821F0E06141F00071416008BD000035
:1018B0000010024000000140F0B40E4B1B680C46C3
:1018C000C3F30223C3F10705042D00D90425191D14
:1018D000072901D2002300E0DB1E012606FA05F1EC
:1018E000491E214099409E40761E16403143F0BC6F
:1018F00001F026BE0CED00E0064900F00702086882
:101900004FF6FF03184040EA0220034A10430860E4
:10191000704700000CED00E00000FA052DE9F047EB
:101920000F46050061D0434E306800F00700B84212
:1019300009D2306820F0070038433060306800F08A
:101940000700B84251D128683B4C810712D54007A7
:1019500003D5606840F4E06060602878000703D534
:10196000606840F4605060606068A96820F0F00032
:10197000084360602878C00728D06868012810D024
:101980002168022810D0890700292EDA616821F029
:10199000030101436160FFF7B7FC804641F28839DB
:1019A0000DE021688903EFE78901EDE7FFF7ACFC63
:1019B000A0EB0801494502D90320BDE8F087606823
:1019C000696800F00C00B0EB810FEFD1306800F0D7
:1019D0000700B8420BD9306820F007003843306068
:1019E000306800F00700B84201D00120E5E7287810
:1019F000400705D56068E96820F4E060084360604E
:101A00002878000706D56068296920F4605040EA0C
:101A1000C100606000F038F86168084AC1F3031142
:101A2000515CC8400649086006480068FFF700FF9F
:101A30000020C2E7002002400010024026520008A9
:101A4000500000204800002004480549006849680B
:101A5000044AC1F30221515CC84070475000002085
:101A600000100240365200080448054900684968E1
:101A7000044AC1F3C221515CC840704750000020A5
:101A800000100240365200080E4A51680E4801F01C
:101A90000C03042B11D0082B0FD10C48C1F3834346
:101AA000C903C05C0AD55168084AC1F34041921E7F
:101AB000515C054A5043B0FBF1F07047044948437C
:101AC000704700000010024000127A001652000811
:101AD00000093D002DE9F84F040070D02078C04D7A
:101AE000C00749D06868C0F38100012807D0686842
:101AF000C0F38100022809D16868C00306D52868B0
:101B0000800339D560680028E7D035E06068B0F51B
:101B1000803F0BD010B1B0F5A02F11D0286820F471
:101B200080302860286820F4802002E0286840F493
:101B300080302860606890B1FFF7E6FB06460AE057
:101B4000286840F480202860F0E700BFFFF7DCFB46
:101B5000801B642873D828688003F7D50CE0FFF752
:101B6000D3FB064605E000BFFFF7CEFB801B6428D1
:101B7000F0D828688003F7D420789A4E80074FF079
:101B800001094FF0000839D5686810F00C0F07D034
:101B90006868C0F38100022809D16868C00306D4D0
:101BA0002868800714D52069012808D110E0206931
:101BB000B0B1C6F80090FFF7A7FB074605E00AE1C1
:101BC000FFF7A2FBC01B0228C4D828688007F7D5FE
:101BD0002868616920F0F80040EAC10028600DE043
:101BE000C6F80080FFF790FB074604E0FFF78CFB88
:101BF000C01B022823D828688007F7D42078000764
:101C00002CD57948A169D9B1C0F80090FFF77CFBC9
:101C1000074604E0FFF778FBC01B02280FD8686A6C
:101C20008007F7D571484FF4FA510068B0FBF1F026
:101C3000009000BF0098411E0091FAD20EE080E0B3
:101C4000C0F80080FFF760FB074604E0FFF75CFB8D
:101C5000C01B022875D8686A8007F7D4207840072F
:101C600060D5E8690027C00008D4E86940F08050DA
:101C7000E861E869012700F0805000905C48016845
:101C8000C90513D40168834641F480710160FFF7F0
:101C90003BFB824606E000BFFFF736FBA0EB0A00E5
:101CA00064284ED8DBF80000C005F5D5E0680128AF
:101CB0000AD008B1052813D0286A20F00100286254
:101CC000286A20F0040002E0286A40F0010028623F
:101CD000E06841F2883B98B1FFF716FB82460BE0C3
:101CE000286A40F004002862EEE700BFFFF70CFB13
:101CF000A0EB0A0159455AD8286A8007F6D50CE0AE
:101D0000FFF702FB824605E0FFF7FEFAA0EB0A01AF
:101D100059454CD8286A8007F6D41FB1E86920F0ED
:101D20008050E861E06988B36968C1F381010229E4
:101D300044D00228C6F8608004D0FFF7E5FA0446D4
:101D400038E034E0FFF7E0FA074604E0FFF7DCFA9A
:101D5000C01B02282BD828688001F7D4206AB0F570
:101D6000803F05D16868A16820F4003008436860AE
:101D7000D4E908010843696821F4741108436860D4
:101D8000C6F86090FFF7C0FA044606E025E000BF01
:101D9000FFF7BAFA001B022809D828688001F7D596
:101DA0001BE000BFFFF7B0FA001B022802D9032096
:101DB000BDE8F88F28688001F4D40EE00128F7D040
:101DC0006868226A00F48031914204D1616A00F4AB
:101DD0007010884201D00120EAE70020E8E7000007
:101DE00000100240000042428004424250000020A5
:101DF0000070004010B5401EB0F1807F01D301207B
:101E000010BD4FF0E02460610F21601701F098FBD6
:101E10000020A06107202061002010BD70B50400E3
:101E200004D094F84100002510B106E0012070BDF7
:101E300084F84050204600F023F8242084F8410024
:101E40002068C16821F40051C160204601F0E2FA27
:101E50002068016921F4904101612068416921F005
:101E60002A0141612068C16841F40051C160656484
:101E7000202084F8410084F842006563002070BD92
:101E800070B586B000240094019402940394234E0C
:101E90000368234902200322224DB34219D18B69E2
:101EA00043F480438B618B6903F4804304938B6913
:101EB00043F004038B618969039201F004010491EA
:101EC0000102CDE9001069462846FFF71BF92815E5
:101ED0001BE0154EB3421FD1CB6943F40033CB61F5
:101EE000CB6903F4003304938B6943F004038B61E3
:101EF0008969039201F0040104910421CDE90010E5
:101F000069462846FFF7FEF80820CDE90004694637
:101F100028460294FFF7F6F806B070BD003801407D
:101F20000010024000080140004400402DE9F84F35
:101F3000044690F842009A4616460D46202802D0E4
:101F40000220BDE8F88FB5B1AEB100206064222157
:101F500084F842102063FFF7D7F9A6858146E6850D
:101F6000A0684FF480582027404501D1206920B156
:101F70002E46002529E00120E3E7002625E04B4618
:101F8000002220212046CDF800A001F09FFA18B1D0
:101F900084F842700320D4E726B1A06840451AD0E7
:101FA00038B108E020684068C0F3080025F8020B4B
:101FB00008E0206978B12068406800F07F0000BF29
:101FC00006F8010BE08D401EE085E08D0028D6D19B
:101FD00084F84270B5E720684068F1E72DE9F843DE
:101FE000044690F84100984616460D46202802D037
:101FF0000220BDE8F88385B17EB100206064212015
:1020000084F84100FFF780F9A6848146E684A06841
:102010002027B0F5805F02D003E00120E9E72069C6
:1020200010B12E4600250EE000260CE0802120464F
:1020300001F04CFAA8B9C6B116F8010B2168486046
:10204000E08C401EE084E08C4B464FF00002CDF85F
:1020500000800028EAD14FF04001204601F036FA16
:1020600040B184F841700320C3E735F8020BC0F398
:102070000800E3E784F841700020BAE7FEE7016852
:102080004A69D24352050FD46FF480624A6100213D
:1020900040F8301F202242738173026942F004022B
:1020A000026101730120704700207047F8B50446B3
:1020B000C06A1E460D461746082807D0012805D0DD
:1020C00010F5803F02D0206B122804D120680168EF
:1020D00041F480710160134600224FF00111204647
:1020E000009600F05DF840B120680068C00502D598
:1020F0004FF4007020640320F8BD2069B0F5804FD4
:102100000ED00620216800EAD51040F0F0000861EA
:1021100033463A460B49204600F08AF878B902E087
:1021200005F0FE0000E0E8B2216808610549334689
:102130003A46891F204600F07BF80028DCD00120B9
:10214000F8BD00000800010070B516460D460446B3
:102150001EE02046FFF793FF08B1012070BD681C08
:1021600016D0FFF7D1F8801BA84200D885B92068A7
:102170004069C04340070BD5002044F8300F2021B0
:102180006173A073216941F0200121612073E4E7AC
:1021900020684069C0434007DBD4002070BD0000C8
:1021A0002DE9F047984617460D460446C1F3074609
:1021B000DDF820902AE000BFB8F1FF3F26D0FFF7FE
:1021C000A3F8A0EB0901414502D8B8F1000F1DD1D9
:1021D0002068012E16D0806925EA00000004000C5A
:1021E00012D00020B84211D1002044F8300F202135
:1021F0006173A073216941F02001216120730120E6
:10220000BDE8F0874069E7E70120EBE72068012E91
:102210000AD0806925EA00000004000C06D00020E6
:10222000B842C9D00020EBE74069F3E70120F7E7A7
:102230002DE9F047984616460D4604464FF0000932
:102240004FF0200AC1F3074723E020684069C043EC
:10225000400515D42068016841F4007101602168CF
:102260006FF480604861C4F8309084F83DA084F831
:102270003E90216C41F00401216484F83C9021E0FF
:10228000701C06D0FFF740F8A0EB0800B04203D85E
:1022900016B1012F1FD021E02068012F15D08069D1
:1022A00025EA00000004000C18D000BF44F8309F5D
:1022B00084F80DA084F80E90216941F0200121617D
:1022C00084F80C900120BDE8F087406925EA000001
:1022D0000004000CEAD12068406901E020688069B0
:1022E00025EA00000004000CAFD1ECE770B51646FB
:1022F0000D4604461EE02046FFF7C1FE08B101204E
:1023000070BD681C16D0FEF7FFFF801BA84200D8E6
:1023100085B920684069C04300060BD5002044F809
:10232000300F20216173A073216941F020012161E8
:102330002073E4E720684069C0430006DBD4002036
:1023400070BD70B50C460546FEF7CCFF38B91420B9
:1023500001F076F921462846FEF7C4FF20B100209F
:1023600070BD0A2001F06CF921462846FEF7BAFF3D
:102370000028F6D0012070BD10B5B8B0002214219D
:10238000012002F047F9444C606008B9FEF714FDE3
:10239000012002F033F9606108B9FEF70DFD01205C
:1023A00002F02CF9A06108B9FEF706FD012002F049
:1023B00025F9E06108B9FEF7FFFC01F0B5FF2061E7
:1023C00008B9FEF7F9FC1C2234496846FEF7D0F83C
:1023D0000021684601F040F9304960631C221C313D
:1023E00007A8FEF7C5F8002107A801F035F92B4929
:1023F000A0631C2238310EA8FEF7BAF800210EA8FF
:1024000001F02AF92549E0631C22543115A8FEF792
:10241000AFF8002115A801F01FF9206208B9FEF7F6
:10242000CBFC1E491C2270311CA8FEF7A1F800212C
:102430001CA801F011F9A06208B9FEF7BDFC17490C
:102440001C228C3123A8FEF793F8002123A801F069
:1024500003F9606208B9FEF7AFFC10491C22A831ED
:102460002AA8FEF785F800212AA801F0F5F8E06215
:1024700008B9FEF7A1FC09491C22C43131A8FEF7B6
:1024800077F8002131A801F0E7F82063002801D196
:10249000FEF792FC38B010BD040000203451000853
:1024A00070B586B000241F480094019402940394F0
:1024B000816941F010018161816901F0100104918D
:1024C000816941F020018161816901F0200104915D
:1024D000816941F004018161816901F00401049185
:1024E000816941F00801816180690F4E00F00800A8
:1024F0000490012202213046FEF701FF022101254E
:10250000CDE90015CDE9024169463046FEF7FAFDF6
:1025100040F203408DE8310069460448FEF7F2FDC1
:1025200006B070BD0010024000080140000C0140E0
:102530000D4810B50B4901600C49416000214FF472
:1025400080428160C0E9031241618161C161016221
:10255000FEF7E0FE002803D0BDE81040FEF72CBCDB
:1025600010BD000000540040E8180020A0860100C3
:10257000094810B5074901600621416040F6FF7126
:102580008160FFF705F9002803D0BDE81040FEF791
:1025900013BC10BD003000403C1900200C4810B5A1
:1025A0000A4901604FF4E1314160002181600C2251
:1025B000C160C0E904128161C161FFF72FFC0028EE
:1025C00003D0BDE81040FEF7F7BB10BD0038014056
:1025D000481900200C4810B50A4901604FF4E13158
:1025E0004160002181600C22C160C0E90412816158
:1025F000C161FFF713FC002803D0BDE81040FEF7CF
:10260000DBBB10BD0044004090190020FEE7FEF740
:102610007BFC002000F00EB810B5410064230222BC
:102620000348FEF73BFF002800D0012010BD00004A
:10263000E818002010B5A0B0044680216846FDF7D8
:10264000F3FF224680216846FDF7C4FF00240021E5
:10265000204600F0A1F880226946402000F00CF9E5
:10266000641CE4B2082CF2D320B010BD70B5642015
:10267000FEF784FC464E00240025305DFFF7CCFFBA
:1026800050B11420FEF77AFC6D1C0A2DF5D3641CA2
:10269000022CF1D3012070BD3E49305D0870AE219F
:1026A000002000F009F92021002000F005F90221A6
:1026B000002000F001F9B021002000F0FDF8A12178
:1026C000002000F0F9F8C821002000F0F5F8002102
:1026D000084600F0F1F81021002000F0EDF840214C
:1026E000002000F0E9F88121002000F0E5F8FF214A
:1026F000002000F0E1F8A121002000F0DDF8A62183
:10270000002000F0D9F8A821002000F0D5F83F21E2
:10271000002000F0D1F8A421002000F0CDF8D32152
:10272000002000F0C9F80021084600F0C5F8D521C6
:10273000002000F0C1F8F021002000F0BDF8D92100
:10274000002000F0B9F82221002000F0B5F8DA21CD
:10275000002000F0B1F81221002000F0ADF8DB21DC
:10276000002000F0A9F82021002000F0A5F88D211C
:10277000002000F0A1F81421002000F09DF8AF2106
:10278000002000F099F80020FFF754FF002070BDF2
:102790003E5200085400002008B5B0308DF800000B
:1027A000102040EA11108DF8010001F00F008DF8A3
:1027B000020003226946002000F05EF808BD000018
:1027C0002DE9F0410F460646A2F12005062B20D048
:1027D000082B1CD1FFF7E0FF1648002400EB05157D
:1027E0004020295D00F068F8641CE4B2082CF7D39F
:1027F000761CF0B23946FFF7CFFF00242819017A82
:10280000402000F059F8641CE4B2082CF6D3BDE86F
:10281000F081FFF7C1FF084905EB4500002401EBFB
:1028200040054020295D00F047F8641CE4B2062C06
:10283000F7D3ECE77A540008405200082DE9F04144
:102840001E4615460F468046002409E004FB06702C
:10285000C1B2334640466D1CFFF7B2FF641CE4B2C0
:102860002A78002AF2D1BDE8F081C906090E400697
:10287000000E0823FFF7E2BF10B5A2B01446802A6D
:1028800012D88DF804000DF10500FDF72CFE642030
:1028900000900748641CA3B2007801AA41000548D3
:1028A000FEF7B2FE002800D0012022B010BD0000CB
:1028B00054000020E81800201CB502238DF8040005
:1028C0006420009006488DF8051001AA00784100A8
:1028D0000448FEF799FE002800D001201CBD00002E
:1028E00054000020E818002070B5050023D0124CD9
:1028F0006069A8B1C82102F08BF801281BD12846D5
:10290000FDF7D2FD82B2642329460C48FFF766FB2F
:102910006069BDE8704000231A46194601F00EBFF9
:102920002846FDF7C1FD2946BDE8704082B2642308
:102930000248FFF753BB70BD040000204819002077
:1029400041F28836304600F07BFE21A0FFF7CCFF35
:10295000FEF736F9244C4FF4807578B123A0FFF7C9
:10296000C3FF206930B1294601F0ECFC80212069C9
:1029700001F0A2FC304600F063FEFBE720A0FFF769
:10298000B3FF206910B1294601F096FC20A123A0D5
:10299000FEF728F988B122A0FFF7A6FF206930B121
:1029A000294601F0CFFC8021206901F085FC42F22C
:1029B0001074204600F044FEFBE71FA0FFF794FFD1
:1029C00020690028F3D0802101F0BCFC2946EBE708
:1029D00045535038323636205441534B20535441DE
:1029E00052540D0A000000000400002045535038E6
:1029F000323636204154204552524F520D0A0000C3
:102A000045535038323636204154204F4B0D0A0082
:102A10003132333435363738390000004F6E6500B7
:102A20004553503832363620434F4E4E454354209E
:102A30004641494C0D0A0000455350383236362085
:102A40005749464920434F4E4E454354204F4B0D66
:102A50000A000000424D434F434C88B04FF4806958
:102A600001264FF4FA7A4FF0000801212846FFF7BB
:102A700068FC30B1207880B184F800803BA0FFF77B
:102A800033FF02212846FFF75CFCB8B15146E069EC
:102A900001F0BEFF012802D00DE02670EEE720789D
:102AA000C0B1F868401CF860667000231A461946E9
:102AB000E06901F043FE30A0FFF716FF49462846C3
:102AC000FFF73FFCD0B15146E06901F0A1FF0128BA
:102AD00004D010E0B868401CB860E5E72078B0B1D9
:102AE000F86808B1401EF860667000231A4619465F
:102AF000E06901F023FE23A0FFF7F6FE607800B343
:102B00005146E06901F084FF012806D019E0B86859
:102B10000028E9D0401EB860E6E71C22114968464B
:102B2000FDF726FD84F8018000231A461946E06966
:102B300001F004FE6846FDF7C3FE30B114A0FFF7B4
:102B4000D3FE322000F07CFD8FE716A0FFF7CCFE0D
:102B500020690028F5D0402101F0F4FBF1E70000E6
:102B6000000C0140C0000020040000204B4559200B
:102B70004D4F44450D0A00004B45592055500D0A54
:102B8000000000004B455920444F574E0D0A0000ED
:102B9000434F4E4649472053415645204552524FD8
:102BA000520D0A00434F4E46494720534156454473
:102BB0000D0A00009AB0DFF868A1DFF868B1DFF80D
:102BC000688100BF01F00AF99AF8001061F3070468
:102BD0009AF8011061F30F249AF8021061F3174478
:102BE0009AF8031061F31F649AF8041061F3070563
:102BF0009AF80510DAF8089061F30F25DAF80C60FE
:102C00009AF8100060F3070701F006F99BF800003E
:102C100050B1C821D8F8180001F0FAFE012812D0EE
:102C200002214248FEF763FBD8F81000464610B177
:102C3000022101F087FBB068401CB0604FF47A704D
:102C400000F0FEFCBEE7FFF7E4FC15F0FF0F26D016
:102C5000C5F30720002852D0C4F30723E2B234A101
:102C60000AA8FDF71BFB230EC4F3074233A10FA8EC
:102C7000FDF714FB4A4635A114A8FDF70FFB3246B9
:102C800034A105A8FDF70AFB17F0FF0010D00128BA
:102C900010D0022823D0032823D030A10BE000213C
:102CA00030A20846FFF7E1FD002130A201201CE020
:102CB00031A100E032A16846FDF7F0FA002129A217
:102CC0000846FFF7D2FD0AAA00210120FFF7CDFD3B
:102CD0000FAA00210220FFF7C8FD6A4603E02BA1DE
:102CE000E9E72DA1E7E700210320FFF7BEFD002360
:102CF0001A461946D8F8180001F020FD94E732462C
:102D000014A105A8FDF7CAFA002116A20846FFF78C
:102D1000ACFD24A200210120FFF7A7FD05AAE2E7F0
:102D2000DC0000200000002004000020000801401A
:102D300054454D503A25642E2564430048554D496D
:102D40003A25642E2564252500000000434E543AA0
:102D5000256C75004552523A256C7500554E4B4E08
:102D60004F574E00444854313100000057414954F8
:102D700020444154410000004E4F524D414C000050
:102D800054454D50204849474800000048554D499A
:102D9000204C4F5700000000414C41524D5F424FC4
:102DA0005448000052454144204552524F520000C1
:102DB00008B540F6B83000F043FC1B4D41F2707688
:102DC0004FF47A77012300961A460721286901F00B
:102DD00017FBC043400724D014A000BFFFF784FDB9
:102DE0000021286901F068FA0446000602D514A003
:102DF000FFF77AFDE00502D515A0FFF775FDA006E7
:102E000002D518A0FFF770FD600606D51AA0FFF7DF
:102E10006BFD4021286901F04FFA384600F010FCA4
:102E2000D0E71BA0DAE7000004000020535953202C
:102E30005441534B2054494D454F55540D0A000001
:102E40005359532057494649204F4B0D0A00000063
:102E50005359532057494649204552524F520D0A63
:102E60000000000053595320414C41524D20414332
:102E7000544956450D0A000053595320434F4E46BE
:102E80004947205341564544204556540D0A0000F9
:102E9000535953205441534B204F4B0D0A0000000F
:102EA00096B04FF47A7000F0CBFB534CDFF84C81B6
:102EB0004FF0000A012542F229390BA8FDF7B8FCB2
:102EC00006A8FDF7A9FDF0B1002600F087FF2571E7
:102ED000504684F805A0E168491CE16084F810A020
:102EE00021788DF8001061788DF80110A1788DF8A7
:102EF0000210E1788DF803108DF804A0A16802910A
:102F0000E168039140E0012600F068FF9DF81A0097
:102F100020709DF81B0060709DF81800A0709DF84F
:102F20001900E07025716571A068401CA06094F8DC
:102F300000C0A7780D98002103B20E989C4502B2FC
:102F4000084600DB0121974200DC012011B120B1CD
:102F5000032005E018B1022002E0284600E05046B8
:102F6000207420788DF8000060788DF80100A0783A
:102F70008DF80200E0788DF803008DF80450A06809
:102F80000290E0680390207C8DF8100000F044FF70
:102F9000D8F810004746E8B1012101F0D3F92EB16D
:102FA0000821386901F0CEF9102104E010213869B8
:102FB00001F0C8F90821386901F07EF99DF8100088
:102FC0004FF020010028386902D001F0BBF901E080
:102FD00001F072F9022300226946786801F0AEFB25
:102FE0000C9880B2A0F57A724A4501D34FF4FA608A
:102FF00000F026FB61E70000DC0000200400002058
:10300000B4B0284C4FF0FF352A4607A9606801F09C
:1030100053FC0128F8D12CA8FDF70AFC0221224814
:10302000FEF765F99DF8200048B39DF82C00F0B13B
:1030300001281ED002281ED003281ED01BA000BFCE
:10304000DDE92E210A9BCDE9040206919DF81E00C0
:1030500003939DF81F10099A8DE807009DF81D3015
:103060009DF81C2013490CA8FDF718F90DE012A0DB
:10307000E6E713A0E4E715A0E2E717A0E0E7DDE943
:1030800009231AA10CA8FDF709F9206910B1042140
:1030900001F058F90CA8FFF727FCE068401CE0603D
:1030A000B2E700000400002000080140554E4B4EDE
:1030B0004F574E006C5A00084E4F524D414C000085
:1030C00054454D505F4849474800000048554D4918
:1030D0005F4C4F570000000054454D505F48494732
:1030E000485F48554D495F4C4F57000044485431A4
:1030F000312052454144204552524F522020434EE8
:10310000543A256C75204552523A256C75200D0AAB
:10311000000000000026B046B34640F6B83000F08C
:103120008FFADFF84490DFF844A000BF00F056FEAD
:10313000D9F80810D9F80C00DAF808500C18DAF8A9
:103140000C7000F069FEB44209D0454507D05F45D8
:1031500005D00748FEF74BFB2646A846BB4640F67F
:10316000B83000F06DFAE1E7DC0000200400002038
:103170003C19002094B041F28837384600F060FADC
:1031800034A0FFF7B1FBFDF71BFD7C0030B137A089
:10319000FFF7AAFB204600F053FAFBE738A0FFF741
:1031A000A3FB3BA13DA0FDF71DFD30B13CA0FFF707
:1031B0009BFB204600F044FAFBE740A0FFF794FB9E
:1031C00043F2390144A0FDF789FD30B146A0FFF775
:1031D0008BFB204600F034FAFBE748A0FFF784FBA6
:1031E0004B4D00BF00F0FAFD287860F307046878C3
:1031F00060F30F24A87860F31744E87860F31F6445
:10320000287960F30706687960F30F26A868E868F4
:10321000287C00F001FEC6F30720A8B1220EC4F3FB
:103220000741C4F307208DE80700E3B239A240212B
:1032300003A8FDF749F881B203A8FDF789FD38B16D
:103240003AA000BFFFF750FB384600F0F9F9C9E794
:103250003AA0F7E745535038323636205441534BA5
:103260002053544152540D0A000000004553503879
:10327000323636204154204552524F520D0A00003A
:1032800045535038323636204154204F4B0D0A00FA
:103290003132333435363738390000004F6E65002F
:1032A00045535038323636205749464920434F4E11
:1032B0004E454354204641494C0D0A004553503871
:1032C000323636205749464920434F4E4E454354E7
:1032D000204F4B0D0A0000003139322E3136382E86
:1032E000312E31303000000054435020434F4E4EB9
:1032F000454354204641494C0D0A00005443502098
:10330000434F4E4E454354204F4B0D0A00000000E2
:10331000DC00002054454D503D25642E25642C488A
:10332000554D493D25642E25640D0A005443502017
:1033300053454E44204641494C0D0A005443502009
:1033400053454E44204F4B0D0A00000010B5FEF7C8
:1033500055FA01F0F3FC012803D0BDE8104001F05C
:1033600037B910BD30B58FB028216846FDF75CF93C
:1033700014210AA8FDF758F90920012100904FF403
:103380008030002404910691CDE901040225CDE9A5
:1033900007504FF4E01009906846FEF79BFB60B9B8
:1033A0000F20CDE90A056802CDE90C4002210AA8E8
:1033B0000E94FEF7B3FA002801D0FDF7FDFC0FB024
:1033C00030BD704701680C3151E8002F22F4907233
:1033D00041E80023002BF5D10168143151E8002F9A
:1033E00022F0010241E80023002BF5D1016B0129F5
:1033F00009D101680C3151E8002F22F0100241E898
:103400000023002BF5D1202180F842100021016318
:103410007047000070B5044600680169E26821F455
:103420004051114301612169A06808436169084363
:103430002168CA6841F20C639A430243CA6020685B
:103440004169A26921F44071114341611E4920681C
:10345000884202D1FEF708FB01E0FEF7F5FA00EB27
:10346000C00101EB0012606864218000B2FBF0F340
:10347000B3FBF1F36FF018067343B2FBF0F5B2FB48
:10348000F0F605EB8305322303EB0515B5FBF1F5EB
:10349000B6FBF1F605F0F00505EB0615B2FBF0F60C
:1034A000B2FBF0F0B0FBF1F06FF01802504306EB06
:1034B000800003EB0010B0FBF1F0216800F00F007A
:1034C0002844886070BD0000003801402DE9F843B1
:1034D000984617460D460446089E24E0701C22D0EC
:1034E000FDF712FFA0EB0800B0421AD8CEB1206859
:1034F000C168490717D5802D15D0402D13D001681C
:10350000C94309070FD40168002540680090204690
:10351000FFF758FF0820606484F840500120BDE8A0
:10352000F8830320FBE72068006835EA000004D038
:103530000020B842D2D00020F1E70120F9E7FEE7F1
:103540000907090E002804DB00F1E02080F80014D0
:10355000704700F00F0000F1E02080F8141D704764
:1035600086B0FEF753F9FFF7FDFEFEF799FFFFF770
:1035700015F8FEF7DDFFFEF7FBFFFFF72BF8FDF771
:10358000F9FAFDF7F1F91948FDF776F9B8B11748DE
:10359000FDF7D2F91548FDF793F9182214A16846F2
:1035A000FCF7E6FF6846FCF77FFF82B264236946BA
:1035B0001548FEF713FDFFF759F828B111E013A3E2
:1035C0000FCB8DE80F00EDE71449012008700021B2
:1035D00013A20846FFF749F913A200210120FFF7C3
:1035E00044F9FEF7C9FE00F032F8FEE7C000002003
:1035F000434F4E4649472044454641554C5420537D
:10360000415645440D0A000048190020434F4E46DC
:103610004947204C4F414445440D0A00000000201A
:10362000444854313100000057414954204441542A
:103630004100000001460020842900D0C81C7047CA
:1036400010B500B9012000F041FC002010BD10B5FC
:1036500000F0AEFD002010BD7FB50D460446416967
:10366000B0F9080081B1A16971B1FFF7E3FFD4E9B6
:1036700005128DE80700D4E900102B46226901F0FD
:103680000FFB039004B070BDFFF7D4FF03A9CDE991
:103690000001208A2B4682B2D4E9001001F0D2FA50
:1036A000012801D00020EDE70398EBE72DE9F04178
:1036B000184C0F460546E6682068001D00F00EFB1A
:1036C00038B9206890F82C10012088402169814386
:1036D0002161681C07D137B12168BDE8F0410E486F
:1036E000091D00F06FBB20683544B5424560216874
:1036F00005D2A06BBDE8F041091D00F04BBB606B2B
:10370000091D00F047FBA06A854200D2A562BDE812
:10371000F081000058000020D41B00202DE9F0416A
:10372000054600F05BFB2E4CA068401CA0602068A2
:103730002C4F10B1606940B32DE02560A0680128CE
:1037400029D1002606EB860007EB800000F014FB71
:10375000761C072EF6D323488C3000F00DFB214851
:10376000A03000F009FB1F48B43000F005FB1D48F5
:10377000C83000F001FB1B48DC3000F0FDFA1948AE
:103780008C3060631430A06305E02068E96AC06A89
:10379000884200D82560606A401C6062E96A0120A6
:1037A000226988401043206101EB810007EB800013
:1037B000291D00F007FB00F02FFB606900280CD0EA
:1037C0002068E96AC06A884207D207494FF08050F2
:1037D0000860BFF34F8FBFF36F8FBDE8F08100002B
:1037E00058000020F81A002004ED00E030B4026C0C
:1037F0000B46002A0BD0C1681144C1608468A14205
:1038000001D30168C16030BC1846FCF76CBE30BC07
:1038100070472DE9F041856B174604460026026C7F
:1038200082B1C7B1E068FCF75EFEE168206C091A5E
:10383000E1602268914202D2A168081AE060022F7A
:1038400016D017E02068A8B9A06801F001FB064671
:103850000020A0600EE06068FCF745FE216C606807
:1038600008446060A168884204D32068606001E079
:1038700005B16D1E6D1CA5633046BDE8F0810000EA
:1038800010B5044690F8510050B101280BD0022821
:103890000ED0BDE8104040F65D7106A000F048BAB9
:1038A000206B00F0CDFA2046BDE8104000F0C8BA09
:1038B00010BD00002E2E2F4D6964646C6577617217
:1038C00065732F54686972645F50617274792F4612
:1038D00072656552544F532F536F757263652F7421
:1038E00061736B732E63000010484FF44061420710
:1038F00006D0C01D0D4920F00700411AC1F54061F6
:103900000B4A00230144C2E900030839183A21F0A8
:10391000070111604B600B600B1AC0E90013936044
:103920004FF000405360506170470000E81B0020DA
:10393000AC000020144E154CA6F1C8074FF080587B
:10394000DFF84C9012E000BF00F048FAF068C5685C
:10395000281D00F0C3F9A068401EA0606068401EEA
:10396000606000F059FA2846FFF78AFF6068002877
:10397000EAD138680128F9D9C9F80080BFF34F8F20
:10398000BFF36F8FF2E70000C01B0020580000203B
:1039900004ED00E0002807D00021816001600B46A3
:1039A0000A46C16000F0CABE70470346009829B1BC
:1039B0000260C0E90F31012100F064BE0060F8E749
:1039C0002DE9F05F8846DDE90B9483466FF0030133
:1039D000206B01EB820108440A9E20F007079A46FB
:1039E000780704D04FF459711CA000F0A1F900250C
:1039F000B8F1000F0ED00020221818F8001082F83D
:103A0000341018F8001011B1401C1028F4D384F8B9
:103A1000435001E084F83450072E00D30626E662B6
:103A2000C4E91165201D00F0B2F904F1180000F09E
:103A3000AEF92461C6F107006462A061E56484F810
:103A4000505052465946384600F036F92060B9F1D8
:103A5000000F01D0C9F80040BDE8F09F2E2E2F4D79
:103A60006964646C6577617265732F546869726408
:103A70005F50617274792F4672656552544F532FAF
:103A8000536F757263652F7461736B732E630000DF
:103A900030B5114900E011460A688242FBD34B68F9
:103AA0005C18844203D14068184448600846436863
:103AB0001C18944209D1084C183C2468A24209D031
:103AC00052681A4442600A6812680260814200D05B
:103AD000086030BD0460F9E7AC00002010B5044672
:103AE00000F07CF9A06B28B15FF0000400F094F9BD
:103AF000204610BD0124F9E70648416B096829B149
:103B0000416BC968C9684968816270474FF0FF31ED
:103B1000FAE700005800002007484068401C03D026
:103B2000CA21064800F004F9502080F31188BFF341
:103B30004F8FBFF36F8FFEE7B4000020545B000887
:103B40000346002012B1994302D070470B42FCD0CB
:103B5000012070472DE9F041044600F03FF994F947
:103B6000455004F1240609E0606A48B1304601F08E
:103B700015FA08B100F0EEF96D1E6DB2002DF3DC00
:103B80004FF0FF3684F8456000F046F900F026F962
:103B900094F9445004F1100709E0206948B138460F
:103BA00001F0FCF908B100F0D5F96D1E6DB2002DE1
:103BB000F3DC84F84460BDE8F04100F02DB900006A
:103BC0002DE9F0410546002600F028FB324F386809
:103BD00008B9FFF789FE7869054250D1F5B3083579
:103BE00068070AD005F00700C0F10800054468071F
:103BF00003D09721294800F09BF87DB3786885426F
:103C00003DD82548183001460C6801E020460C4696
:103C10006168A94202D221680029F7D13968B84603
:103C20008C422CD006682168016060680836401B11
:103C300010280DD96719780703D0C421174800F060
:103C400077F86068401B786038466560FFF720FFB2
:103C50006268D8F804104046891A00E00FE0C8F8FE
:103C60000410D8F80830994200D2816041690A43B3
:103C70000021C4E90012C168491CC8F80C1001F009
:103C8000DFF9700704D040F20511044800F050F845
:103C90003046BDE8F0810000940000200C5B000875
:103CA0000449086818B10868826C521C826408686C
:103CB000704700005800002010B5031F4FF08074BB
:103CC0001C601B1F21F001011960191F024B0B60C2
:103CD000143940380A6010BD193B0008D0E90132A0
:103CE00001699A60D0E901235A604A68824201D191
:103CF00082684A60002202610868401E0860086805
:103D000070470000044908680A688069D26A096837
:103D1000C2F107028A61704758000020034B03601C
:103D200003F154000860802010607047F00000200C
:103D300008B5502080F31188BFF34F8FBFF36F8F0A
:103D40000A4E0025DFF828800A4C771402213046FD
:103D5000FDF7CDFA39464046FDF7C9FA009500BF98
:103D60000098401C0090A042F9D3EFE70008014002
:103D70000010014090D0030000F108014FF0FF3225
:103D8000C0E90112C160016100210160704700219A
:103D90000161704730B50B685A1C02D000F108026F
:103DA00002E0026904E02246546825689D42FAD97F
:103DB00053684B6099608A60516008610168491CD2
:103DC000016030BD42684A6093688B6093685960B7
:103DD000916008610168491C01607047502080F3C0
:103DE0001188BFF34F8FBFF36F8F08494868401C9D
:103DF0004860012809D10648006810F0FF0F04D080
:103E00004FF4B3710348FFF793BF7047B40000202D
:103E100004ED00E0545B000810B5074C606820B961
:103E200040F26D110548FFF783FF6068401E606037
:103E300001D180F3118810BDB4000020545B00084C
:103E400070B500282BD0164DA0F108046068696990
:103E5000084204D140F219111248FFF769FF2068A7
:103E600020B14FF48D710F48FFF762FF61686869F8
:103E7000014214D02268002A11D18143616000F010
:103E8000CDF960686968084468602046FFF700FE65
:103E90002869401C2861BDE8704001F0D1B870BDB0
:103EA000940000200C5B00084FF0E020002101612D
:103EB000816105494FF47A720968B1FBF2F1491E3C
:103EC00041610721016170475000002010B50400D6
:103ED00011D00D48006B20B140F244510BA0FFF708
:103EE00027FF00F09BF900212046FFF7DFFB01F0E0
:103EF000A7F8002807D112494FF080500860BFF39F
:103F00004F8FBFF36F8F10BD580000202E2E2F4D06
:103F10006964646C6577617265732F546869726453
:103F20005F50617274792F4672656552544F532FFA
:103F3000536F757263652F7461736B732E6300002A
:103F400004ED00E002490A6A0260C96841607047F6
:103F50005800002001490120C86170475800002026
:103F600070B50D46040004D140F6FA3107A0FFF702
:103F7000DFFE1348016820461831FFF70BFF284683
:103F8000BDE870400121FFF791BB00002E2E2F4DA0
:103F90006964646C6577617265732F5468697264D3
:103FA0005F50617274792F4672656552544F532F7A
:103FB000536F757263652F7461736B732E630000AA
:103FC000580000202DE9F04116460F46050004D1A7
:103FD00040F60B410CA0FFF7ABFE184C206B20B94C
:103FE00040F60F4108A0FFF7A3FE216847F000400C
:103FF0008861216828461831FFF7E4FE3046BDE8A5
:10400000F0410121FFF752BB2E2E2F4D6964646CE5
:104010006577617265732F54686972645F5061726D
:1040200074792F4672656552544F532F536F7572D2
:1040300063652F7461736B732E630000580000205A
:1040400070B50D46040043D0A06C20B941F2620166
:1040500020A0FFF76DFE606CA84200D30546E06A21
:10406000A84235D0A06C012832D1274E3068844256
:1040700004D141F27D0117A0FFF75AFEE06AE56224
:10408000A169002902DBC5F10701A1611F4D00EB09
:104090008000616905EB8000814219D1201DFFF786
:1040A0001DFE012130B994F82C00326901FA00F0AC
:1040B00082433261E06A326981401143316100EB31
:1040C000800005EB8000211DBDE87040FFF77ABE3F
:1040D00070BD00002E2E2F4D6964646C657761728F
:1040E00065732F54686972645F50617274792F46EA
:1040F00072656552544F532F536F757263652F74F9
:1041000061736B732E63000058000020F81A0020C2
:1041100070B5184D06460C46286B20B940F68C4108
:1041200015A0FFF705FE44F000403060F46824B9A4
:1041300040F6944110A0FFF7FBFD3046FFF7CEFD9F
:10414000201DFFF7CBFDE16A01262A6906FA01F07E
:104150001043286101EB8100144901EB8000211D0F
:10416000FFF730FEE06A2968C96A884200D9EE612B
:1041700070BD0000580000202E2E2F4D6964646C25
:104180006577617265732F54686972645F506172FC
:1041900074792F4672656552544F532F536F757261
:1041A00063652F7461736B732E630000F81A00202F
:1041B00010B586B00024039405AA04A903A80494AA
:1041C000FFF7ACFDDDE903010094CDE90110002308
:1041D0000EA11048059A00F063FD0F490028C8623F
:1041E00011D0502080F31188BFF34F8FBFF36F8F32
:1041F0004FF0FF30886201204861CC6006B0BDE816
:10420000104000F093B906B010BD000049444C4581
:104210000000000035390008580000200248016BFA
:10422000491C0163704700005800002070B5134C12
:10423000206B10B10120E06170BD0020E0612069B9
:104240000F4EB0FA80F0C0F11F0000EB800556F869
:10425000250020B940F6E1310AA0FFF769FD06EB21
:10426000850000F10802416849684160914201D12E
:1042700049684160C868206070BD00005800002097
:10428000F81A00202E2E2F4D6964646C65776172D8
:1042900065732F54686972645F50617274792F4638
:1042A00072656552544F532F536F757263652F7447
:1042B00061736B732E63000070B50E46040004D169
:1042C0004FF4EA7109A0FFF733FD300E04D040F23D
:1042D000D51106A0FFF72CFDFFF780FD256825EA24
:1042E00006002060FFF798FD284670BD2E2E2F4D4A
:1042F0006964646C6577617265732F546869726470
:104300005F50617274792F4672656552544F532F16
:10431000536F757263652F6576656E745F67726F34
:104320007570732E6300000070B51C20FFF748FC09
:10433000040005D00025201D2560FFF71DFD257612
:10434000204670BD2DE9F04100278846040004D1C5
:1043500040F212211BA0FFF7EBFC5FEA186004D0CB
:1043600040F2132117A0FFF7E3FC261D04F10C0512
:10437000FFF754FF2168F06841EA0801216017E067
:10438000D0E9001601F07F425301236821F07F41FC
:1043900002D40B4203D10AE031EA030307D1D20170
:1043A00000D50F43216841F00071FFF7B1FE3046A0
:1043B000A842E5D12068B843206000F041FE2068A3
:1043C000BDE8F0812E2E2F4D6964646C65776172B3
:1043D00065732F54686972645F50617274792F46F7
:1043E00072656552544F532F536F757263652F6515
:1043F00076656E745F67726F7570732E6300000070
:104400002DE9F0479A46DDF8209090460D460400CD
:104410004FF0000704D14FF4A07134A0FFF788FCDF
:10442000280E04D040F2411130A0FFF781FC25B9DD
:104430004FF4A1712DA0FFF77BFC00F07FFC38B991
:10444000B9F1000F04D040F2451128A0FFF770FC2D
:10445000FFF7E4FE2668524629463046FFF770FB18
:1044600030B1B8F1000F1AD02068A843206016E0E0
:10447000B9F1000F13D0B8F1000F01D04FF08077E1
:10448000BAF1000F01D047F0806745EA07014A46BC
:10449000201DFFF797FD00F0D3FD18B10AE000F0F2
:1044A000CFFD1FE020494FF080500860BFF34F8FD1
:1044B000BFF36F8FFFF726FC0646800110D4FFF78D
:1044C0008DFC2668524629463046FFF739FB28B155
:1044D000B8F1000F02D02068A8432060FFF79CFCD1
:1044E00026F07F463046BDE8F08700002E2E2F4D87
:1044F0006964646C6577617265732F54686972646E
:104500005F50617274792F4672656552544F532F14
:10451000536F757263652F6576656E745F67726F32
:104520007570732E6300000004ED00E07CB5244D2F
:1045300028780190FF20287028788DF800009DF8D9
:1045400000009DF8001000F0F000884204D04FF405
:104550008A711C48FFF7ECFB9DF800001A4C00F034
:10456000500020700720A06006E000BF9DF80010FA
:1045700049008DF80010401E9DF800100906F5D482
:10458000A060032804D04FF498710E48FFF7D0FBC9
:10459000207A000200F4E060A060019828700B48C7
:1045A000016841F470010160016841F070410160EF
:1045B000FFF77AFC00206060FBF702FE00207CBD64
:1045C00000E400E0545B0008B400002020ED00E0AF
:1045D00010B5502080F31188BFF34F8FBFF36F8F5A
:1045E00000F0BAFB18B104494FF080500860002079
:1045F00080F3118810BD000004ED00E010B5024604
:104600000021012000F006F80446FFF7C3F9204618
:1046100010BD0000F8B517460E46050004D14FF452
:10462000BB710BA0FFF784FB05FB06F04830FFF7DA
:10463000C7FA04000AD0002084F8460004F14802BA
:104640003B46314628460094FFF7AFF92046F8BDB7
:104650002E2E2F4D6964646C6577617265732F54DB
:10466000686972645F50617274792F467265655231
:10467000544F532F536F757263652F717565756550
:104680002E63000070B50D46040004D140F2031102
:104690001CA0FFF74DFBFFF7A1FBD4E90F20216819
:1046A00002FB0011A1600021A163216861600A463C
:1046B000D4E90F01401E00FB0121E16021464FF0CB
:1046C000FF3001F8440F487004F1100055B1FFF7B6
:1046D00053FB04F12400FFF74FFB00BFFFF79CFBE7
:1046E000012070BD21690029F8D000F057FC002896
:1046F000F4D011494FF080500860BFF34F8FBFF3E3
:104700006F8FEBE72E2E2F4D6964646C65776172B5
:1047100065732F54686972645F50617274792F46B3
:1047200072656552544F532F536F757263652F71C5
:10473000756575652E63000004ED00E02DE9FF4707
:1047400082B01D468A464FF00008040004D140F2B2
:10475000EA214BA0FFF7ECFABAF1000F06D1206C6A
:1047600020B140F2EB2146A0FFF7E2FA022D07D17B
:10477000E06B012804D04FF43B7141A0FFF7D8FA59
:1047800000F0DCFA30B9049820B140F2EF213CA0EF
:10479000FFF7CEFA474F4FF000094FF0805600BFA9
:1047A000FFF71CFBA06BE16B884207D3022D05D0FD
:1047B0000498D0B1B8F1000F1AD01EE02A46514635
:1047C0002046FFF726F8616A19B104F1240000F0D1
:1047D000E5FB20B13E60BFF34F8FBFF36F8FFFF754
:1047E0001BFB012006B0BDE8F087FFF715FB22E0B8
:1047F0006846FFF7A7FB4FF00108FFF70DFBFFF737
:104800000DFDFFF7EBFA94F94400401C01D184F848
:10481000449094F94500401C01D184F84590FFF77D
:10482000FBFA04A9684600F0BFF930B12046FFF753
:1048300091F900F005FC0020D4E7FFF7CFFAA06B58
:10484000E16B884213D1FFF7E7FA04F110000499F5
:10485000FFF786FB2046FFF77DF900F0F1FB00280B
:104860009ED13E60BFF34F8FBFF36F8F98E7FFF786
:10487000D3FA2046FFF76EF900F0E2FB90E7000064
:104880002E2E2F4D6964646C6577617265732F54A9
:10489000686972645F50617274792F4672656552FF
:1048A000544F532F536F757263652F71756575651E
:1048B0002E63000004ED00E02DE9F747002683B0E9
:1048C0008A46040004D140F2045143A0FFF730FAB5
:1048D000BAF1000F06D1206C20B14FF4A1613EA0C7
:1048E000FFF726FA00F02AFA30B9059820B140F215
:1048F0000D5139A0FFF71CFA4FF000094FF0805717
:10490000DFF80881FFF76AFAA56BC5B1514620466A
:10491000FEF76CFF6D1EA563206950B104F1100015
:1049200000F03CFB28B1C8F80070BFF34F8FBFF315
:104930006F8FFFF771FA012006B0BDE8F087059888
:1049400008B11EB106E0FFF767FA27E06846FFF7F7
:10495000F9FA0126FFF760FAFFF760FCFFF73EFA6D
:1049600094F94400401C01D184F8449094F9450026
:10497000401C01D184F84590FFF74EFA05A968461E
:1049800000F012F9002820460AD0FFF7E3F800F003
:1049900057FB2046FFF7A2F80028B3D00020CBE752
:1049A000FFF79CF890B104F124000599FFF7D8FABD
:1049B0002046FFF7CFF800F043FB0028A2D1C8F84B
:1049C0000070BFF34F8FBFF36F8F9BE72046FFF759
:1049D000C1F800F035FB95E72E2E2F4D6964646C0D
:1049E0006577617265732F54686972645F50617294
:1049F00074792F4672656552544F532F536F7572F9
:104A000063652F71756575652E63000004ED00E028
:104A10002DE9F343002683B00400354604D140F26B
:104A2000955153A0FFF784F9206C20B140F29951C1
:104A30004FA0FFF77DF900F081F930B9049820B15B
:104A400040F29E514AA0FFF773F9DFF858814FF00A
:104A500000094FF0805700BFFFF7C0F9A06BC8B145
:104A6000401EA063206810B9FFF71AF9A060206902
:104A700050B104F1100000F091FA28B1C8F80070AC
:104A8000BFF34F8FBFF36F8FFFF7C6F9012005B05B
:104A9000BDE8F083049808B14EB10CE025B140F2B6
:104AA000E55133A0FFF744F9FFF7B6F95EE0684639
:104AB000FFF748FA0126FFF7AFF9FFF7AFFBFFF763
:104AC0008DF994F94400401C01D184F8449094F984
:104AD0004500401C01D184F84590FFF79DF904A9D9
:104AE000684600F061F80028204612D0FFF732F83F
:104AF00000F0A6FA2046FEF7F1FF0028ACD075B30F
:104B0000FFF76CF9606A58B3206B0068C0F10701C9
:104B100028E0FEF7E3FFE0B1206838B9FFF75EF95F
:104B2000A06800F0F5F90546FFF776F904F12400D6
:104B30000499FFF715FA2046FFF70CF800F080FA09
:104B4000002889D1C8F80070BFF34F8FBFF36F8F73
:104B500082E72046FEF7FEFF00F072FA7CE705E0F0
:104B6000FFE70021A068FFF76BFA9DE700208EE7C2
:104B70002E2E2F4D6964646C6577617265732F54B6
:104B8000686972645F50617274792F46726565520C
:104B9000544F532F536F757263652F71756575652B
:104BA0002E63000004ED00E02DE9F0410C46050005
:104BB00004D140F6CE4115A0FFF7BAF824B940F66B
:104BC000CF4112A0FFF7B4F8FFF708F91C4EF268C6
:104BD0006B682068D11A471C07D02F68366AB74225
:104BE00009D0934207D8012400E00024FFF714F90C
:104BF0002046BDE8F081884205D9401A2060284649
:104C0000FFF7A0F9F1E700202060ECE72E2E2F4DF2
:104C10006964646C6577617265732F546869726446
:104C20005F50617274792F4672656552544F532FED
:104C3000536F757263652F7461736B732E6300001D
:104C4000580000202DE9FF5F8346DDE90E87994675
:104C500016468A469000FEF7B3FF05001CD054208C
:104C6000FEF7AEFF040014D00020256384F8510045
:104C7000CDE90240CDE900874B46324651465846C1
:104C8000FEF79EFE2046FEF749FD012004B0BDE878
:104C9000F09F2846FFF7D4F84FF0FF30F6E700000A
:104CA0002DE9F04786B01F46DDE90F540E9E904671
:104CB0008946824625B94FF4147113A0FFF738F8DE
:104CC00024B940F2512110A0FFF732F8542000908F
:104CD0000020B4B1ADB10221256384F851100390D6
:104CE00004A90096CDE901143B4642464946504688
:104CF000FEF766FE2046FEF711FD049806B0BDE8FB
:104D0000F0870490FAE700002E2E2F4D6964646C42
:104D10006577617265732F54686972645F50617260
:104D200074792F4672656552544F532F536F7572C5
:104D300063652F7461736B732E63000005484169CE
:104D400019B1006B18B10020704701207047022094
:104D500070470000580000202DE9F0412D4C00263E
:104D6000206B28B1A069401CA0613046BDE8F081ED
:104D7000E5686D1CE56010D1606B006820B140F6FD
:104D8000A92125A0FEF7D4FF606BA16B6163A0632E
:104D9000206A401C2062FEF7AFFEA06ADFF8AC80FC
:104DA000854209D3606B0068A0B1606BC068C768BA
:104DB0007868854211D2A0622068C06A00EB800149
:104DC00058F82100012800D90126E0690028CCD03C
:104DD0000126CAE74FF0FF30EDE7381DFEF77EFFF2
:104DE000B86A18B107F11800FEF778FFF96A0120D8
:104DF000226988401043206101EB810108EB8100AA
:104E0000391DFEF7DFFFF86A2168C96A8842C9D3F5
:104E10000126C7E7580000202E2E2F4D6964646CD0
:104E20006577617265732F54686972645F5061724F
:104E300074792F4672656552544F532F536F7572B4
:104E400063652F7461736B732E630000F81A002082
:104E500070B504004FF000063AD01E4D2868844219
:104E600004D041F213011CA0FEF762FFA06C20B930
:104E700041F2140118A0FEF75BFFA06C401EA06475
:104E8000626CE16A914223D010BB201DFEF726FF21
:104E90001E4A012150B9E06A00EB800352F823302A
:104EA00023B92B6901FA00F083432B61606CE06247
:104EB000C0F10700A061E06A2B69814019432961B4
:104EC00000EB800002EB8000211DFEF77BFF012636
:104ED000304670BD580000202E2E2F4D6964646C42
:104EE0006577617265732F54686972645F5061728F
:104EF00074792F4672656552544F532F536F7572F4
:104F000063652F7461736B732E630000F81A0020C1
:104F100070B504004FF0000034D01E4DE16A2A68DD
:104F2000D26A91422FD2A069002804DB2868C06AA7
:104F3000C0F10700A061184E01EB8101606906EB2A
:104F4000810188421AD1201DFEF7C8FE012130B927
:104F500094F82C002A6901FA00F082432A6128683B
:104F6000C06AE0622A6981401143296100EB800038
:104F700006EB8000211DFEF725FF02E02868C06ACD
:104F8000E062012070BD616C2A68D26A9142F8D358
:104F900070BD000058000020F81A00202DE9F041F3
:104FA000C068C46824B940F6554116A0FEF7C0FE9B
:104FB00004F118000746FEF791FE1F4D286B0126ED
:104FC00068B11E48394600BFFEF7FCFEE06A29685A
:104FD000C96A884214D90120EE61BDE8F081201D24
:104FE000FEF77CFEE16A2A6906FA01F010432861A7
:104FF00001EB81001149B43901EB8000211DE3E789
:105000000020EAE72E2E2F4D6964646C657761728B
:1050100065732F54686972645F50617274792F46AA
:1050200072656552544F532F536F757263652F74B9
:1050300061736B732E63000058000020AC1B0020CE
:105040002DE9F0472B4C00252E46206B20B940F669
:10505000990129A0FEF76CFEFEF7C0FE206B401EF2
:105060002063206BE8BBA168304F0120C9B3A7F1D2
:10507000B40980463868E8B1F868C56805F11800D9
:10508000FEF72CFE281DFEF729FEE86A226908FAC1
:1050900000F11143216100EB800109EB8100291D22
:1050A000FEF790FEE86A2168C96A8842E2D3C4F834
:1050B0001C80DFE70DB1FEF71FFDA56945B147462E
:1050C000FFF74AFE00B1E7616D1EF9D10020A06133
:1050D000E06930B11649012630070860BFF34F8FF1
:1050E00000E001E0BFF36F8FFEF796FE3046BDE8AB
:1050F000F0870000580000202E2E2F4D6964646C4C
:105100006577617265732F54686972645F5061726C
:1051100074792F4672656552544F532F536F7572D1
:1051200063652F7461736B732E630000AC1B0020EA
:1051300004ED00E0B45A0008B52B000800000000A0
:10514000000000000001000000000000000000005E
:10515000F85A000801300008FEFF000000000000BF
:10516000800000000000000000000000E05A00087D
:10517000A12E0008010000000000000080000000D7
:105180000000000000000000BC5A000815310008B3
:10519000FEFF00000000000000010000E8140020F5
:1051A00094140020045B0008552A00080000000049
:1051B0000000000000010000400C0020EC0B00206B
:1051C000EC5A0008B12D0008FEFF000000000000AE
:1051D000000100009410002040100020D85A000860
:1051E00041290008FEFF00000000000080010000CF
:1051F000EC07002098070020CC5A00087531000801
:10520000FEFF000000000000800100009803002065
:1052100044030020010202030405060708090A0BE3
:105220000C0D0E0F10100000000000000000010225
:1052300003040607080900000000010203043C3DC6
:1052400000000000000000004C40000000020202CC
:105250000000207C28283E20006C4A7424000C5258
:105260003C7C5270304C7A6C5040000200000000D0
:105270000000007C820000423C0000000018381052
:10528000180000001018100000C0000000000808FE
:105290000808080800400000000000403008060030
:1052A000007C42427C000000447C000000646252AA
:1052B0004C000064424A7C000010287C2000006CF6
:1052C0004C4C7000007C4A4A74000004641C0400CA
:1052D000007C4A527C00005C52523C00000048486E
:1052E00000000000C8000000001828244200001838
:1052F00018181800004224281800000462520C00FC
:1053000018647A566C1840301C1C7000007C545491
:105310005C20186442424224007C44442418007CEF
:1053200054544400007C14141C0438444242640069
:10533000007C10107C0000007C440000808080FC19
:105340000400007C08344000007C40404000704C69
:1053500070107C00007C08103C0018644242443805
:10536000007C14140C0438446242C438007C1414C9
:105370006C00004C4A52740004047C040404007C59
:1053800040407C00000C30300C00003C143C1C04FD
:105390000044283844000004780804000064544C99
:1053A00044000000FE8280000006083040000080BB
:1053B00082FE000000010101010080808080808069
:1053C000000101000000006058587040007E48480D
:1053D0007000007048484000007048487E400070EF
:1053E0006868500000087C0C0C0000F0E8E8D80861
:1053F000007E080870000008784000000080808867
:105400007A00007E1038480000007E400000784896
:1054100048704870087808087000007048487000AC
:1054200008F84848700000704848F00008487008C4
:10543000080000505868680000087C484800087858
:1054400040407840081820201800083828383808CC
:105450000048383848000098A0601808004868588C
:1054600048000000007E8000000000FF0000008077
:105470007E000000000101020200000000000000A8
:1054800000000000000000000000000000F8000024
:105490000000000000330000000000100C02100C9F
:1054A000020000000000000000000040C07840C082
:1054B000780000043F04043F040000708888FC0862
:1054C000300000182020FF211E00F008F080601836
:1054D000000000310C031E211E0000F0088870003F
:1054E00000001E21232C1927211000120E0000009D
:1054F00000000000000000000000000000E01804B0
:105500000200000000071820400000020418E0001C
:1055100000000040201807000000404080F080405C
:1055200040000202010F0102020000000000E00042
:105530000000000101010F01010100000000000056
:10554000000000907000000000000000000000005B
:105550000000000101010101010000000000000045
:105560000000003030000000000000000000C038E3
:105570000400006018070000000000E01008081098
:10558000E000000F102020100F0000001010F800A5
:105590000000000020203F202000007008080808BC
:1055A000F00000302824222130000030080808884C
:1055B00070000018202121221C000000804030F8DB
:1055C000000000060524243F242400F88888880869
:1055D00008000019202020110E0000E0108888909B
:1055E0000000000F112020201F0000180808886804
:1055F00018000000003E01000000007088080888C4
:105600007000001C222121221C0000F00808081054
:10561000E0000001122222110F00000000C0C000B3
:10562000000000000030300000000000008000009A
:105630000000000000E0000000000000804020109A
:1056400008000001020408102000004040404040D3
:105650004000000202020202020000081020408006
:1056600000000020100804020100007048080888AB
:1056700070000000003037000000C030C828E8107B
:10568000E000071827282F2817000000C038E00086
:105690000000203C23020227382008F88888887000
:1056A0000000203F202020110E00C030080808080C
:1056B0003800071820202010080008F808080810F3
:1056C000E000203F202020100F0008F88888E8081C
:1056D0001000203F20202320180008F88888E808C0
:1056E0001000203F200003000000C03008080838E8
:1056F000000007182020221E020008F808000008F9
:10570000F808203F210101213F20000808F808087F
:1057100000000020203F2020000000000808F808BA
:105720000800C08080807F00000008F888C028182A
:105730000800203F20012638200008F8080000005B
:105740000000203F20202020300008F8F800F8F862
:105750000800203F013E013F200008F830C000084B
:10576000F808203F200007183F00E0100808081044
:10577000E0000F10202020100F0008F8080808088B
:10578000F000203F210101010000E010080808108E
:10579000E0000F10282830504F0008F888888888CB
:1057A0007000203F2000030C30200070880808089B
:1057B00038000038202121221C00180808F80808A9
:1057C00018000000203F2000000008F80800000832
:1057D000F808001F202020201F000878880000C83B
:1057E0003808000007380E01000008F800F800F83B
:1057F000080000033E013E0300000818688080682E
:10580000180820302C03032C30200838C800C83872
:1058100008000000203F2000000010080808C838D9
:1058200008002038262120201800000000FE020277
:1058300002000000007F40404000000438C000002B
:105840000000000000010638C00000020202FE0055
:105850000000004040407F000000000004020204FD
:105860000000000000000000000000000000000038
:105870000000808080808080808000020204000020
:105880000000000000000000000000008080800098
:10589000000000192424123F200010F00080800036
:1058A0000000003F112020110E00000000808080C9
:1058B0000000000E11202020110000008080809048
:1058C000F000001F202020103F20000080808080FA
:1058D0000000001F242424241700008080E0909002
:1058E00020000020203F20200000000080808080D9
:1058F0008000006B94949493600010F0008080808E
:105900000000203F210000203F20008098980000E8
:1059100000000020203F2020000000000080989818
:10592000000000C08080807F000010F000008080B8
:105930008000203F240629302000001010F80000CD
:1059400000000020203F2020000080808080808098
:105950008000203F20003F20003F8080008080802A
:105960000000203F210000203F2000008080808038
:105970000000001F202020201F0080800080800069
:10598000000080FF912020110E00000000808000A8
:105990008000000E11202091FF8080808000808098
:1059A000800020203F2120000100000080808080B6
:1059B00080000033242424241900008080E08080AB
:1059C00000000000001F20201000808000000080E8
:1059D0008000001F202020103F20808080008080D9
:1059E000800000030C300C030000808000808000E9
:1059F0008080010E300C0738060100808080008016
:105A000080000020310E2E31200080808000008038
:105A10008080008186781806010000808080808068
:105A200080000021302C222130000000000000FC0A
:105A3000020200000000013E404000000000FF00A4
:105A4000000000000000FF0000000202FC00000057
:105A5000000040403E01000000000002010202047C
:105A60000200000000000000000000004448543123
:105A7000312054454D503A25642E25644320485525
:105A80004D493A25642E2564252520434E543A2558
:105A90006C75204552523A256C7520414C41524D4F
:105AA0003A25732054483A256420484C3A25640D21
:105AB0000A0000006C65645461736B007761746365
:105AC00068646F675461736B0000000077696669F2
:105AD0005461736B000000006573705461736B0058
